:020000040800F2
:10000000F0E900205D020008CB18000887170008FF
:10001000C91800080F040008751A00080000000045
:100020000000000000000000000000009D0100082A
:100030001104000800000000F9010008D5180008AC
:1000400077020008770200087702000877020008AC
:10005000770200087702000877020008770200089C
:10006000770200087702000877020008770200088C
:10007000770200087702000877020008770200087C
:10008000770200087702000877020008770200086C
:10009000770200087702000877020008770200085C
:1000A00077020008A119000877020008770200080B
:1000B000770200087702000877020008770200083C
:1000C000770200087702000877020008770200082C
:1000D000770200087702000877020008770200081C
:1000E000770200087702000877020008770200080C
:1000F00077020008770200087702000877020008FC
:1001000077020008770200087702000877020008EB
:1001100077020008770200087702000877020008DB
:1001200077020008770200087702000877020008CB
:1001300077020008650400087702000877020008CB
:1001400077020008770200087702000877020008AB
:10015000770200087702000877020008770200089B
:10016000770200087702000877020008770200088B
:1001700077020008770200087702000800000000FC
:100180007702000877020008DFF80CD000F010F9C1
:1001900000480047F13F0008F0E900202C4B1968A7
:1001A0000868B0E8F04F80F30988BFF36F8F4FF015
:1001B000000080F3118870470000000008480068C4
:1001C000006880F308884FF0000080F3148862B65E
:1001D00061B6BFF34F8FBFF36F8F00DF00BF00BF6B
:1001E00008ED00E0DFF80C00016841F470010160E7
:1001F000704700BF88ED00E0EFF30980BFF36F8F19
:10020000134B1A681EF0100F08BF20ED108A20E96A
:10021000F04F106009B44FF0500080F31188BFF325
:100220004F8FBFF36F8F09F0CFFF4FF0000080F3C7
:10023000118809BC19680868B0E8F04F1EF0100F6B
:1002400008BFB0EC108A80F30988BFF36F8F704746
:10025000FC000020EFF3058070470000064880474F
:1002600006480047FEE7FEE7FEE7FEE7FEE7FEE79B
:10027000FEE7FEE7FEE7FEE78519000889010008B2
:100280002DE9F05F0546002092469B4688460646CB
:10029000814640241BE0284641464746224600F05E
:1002A00076F853465A46C01A914110D31146184663
:1002B000224600F05DF82D1A67EB01084F462246F2
:1002C0000120002100F054F817EB00094E41201ED8
:1002D000A4F10104DFDC484631462A464346BDE826
:1002E000F09F40EA01039B0703D009E008C9121FF1
:1002F00008C0042AFAD203E011F8013B00F8013BE0
:10030000521EF9D27047D2B201E000F8012B491E0B
:10031000FBD270470022F6E710B513460A460446A2
:100320001946FFF7F0FF204610BD30B50446002007
:10033000034600E05B1C934203D2E05CCD5C401BB3
:10034000F8D030BD30B50B460146002020220124F4
:1003500009E021FA02F59D4205D303FA02F5491B93
:1003600004FA02F52844151EA2F10102F1DC30BDA9
:10037000202A04DB203A00FA02F100207047914065
:10038000C2F1200320FA03F3194390407047202A5A
:1003900004DB203A21FA02F00021704721FA02F32F
:1003A000D040C2F120029140084319467047000036
:1003B000064C074D06E0E06840F0010394E80700B2
:1003C00098471034AC42F6D3FFF7E2FEE8B10008DC
:1003D00008B2000830B58C1810F8012B12F00F038A
:1003E00001D110F8013B120906D110F8012B03E0EE
:1003F00010F8015B01F8015B5B1EF9D101E001F827
:10040000013B521EFBD1A142E6D3002030BDFEE7E6
:1004100070470000064908B509684FF4FA52B1FB6D
:10042000F2F14143009100BF491E0091FBD208BD8B
:100430002C00002038B50446006800F58050816922
:1004400041F480118161206800F58050806900903E
:100450000120FFF7DFFF2068009900F580508161DF
:1004600038BD0000014800F062B90000843400206B
:100470002DE9F041044621B14FF40060E060C00076
:10048000A060E0690025002861D028462368402646
:1004900019683A4A1140D4E902273A43024342F428
:1004A00000700843186020680768012000F072F8A7
:1004B000206807602068466020684668012000F0D8
:1004C00069F820684660206885602068C5602168FA
:1004D00088694FF64172104040F0800088612068C2
:1004E0008669012000F056F8206886612068C561A1
:1004F0002068C569012000F04DF82068C5612268B8
:1005000002F5805290691E4908401E4901439161DD
:10051000206800F580508569012000F03BF82068D4
:1005200000F5805085612068174900F58050016012
:10053000206800F580500568012000F02BF8206845
:1005400000F580500560A069012803D009E04FF450
:1005500080609BE7206800F58050C1690B4A114319
:10056000C16160690A4982880A640278D0F8010092
:1005700042EA00204864BDE8F08100000F8120FFBE
:10058000233FDEF8040020028020C1024000010069
:100590000080024070B5044600F098FC0546601CDF
:1005A00002D004480078044400F090FC401BA042B4
:1005B000FAD370BD200000202DE9F04390F84540AB
:1005C0000025012C0DD04FF0010C80F845C002240D
:1005D00080F8444044F2F4574FF000495E1E8162B7
:1005E00017E00220BDE8F08301EB4514C4F8009049
:1005F000C5EBC51808EB480802EB8808C4E9017888
:10060000B54204D204F12008C4F80C8000E0E16097
:100610006D1C9D42E8D3026802F58052D16080F8DB
:1006200044C0002180F845100846DBE72DE9F0437F
:10063000914690F845200024012A0AD0012680F82E
:100640004560022280F844204FF4801C5D1EC16288
:100650001BE00220BDE8F08301EB4412C2F800C0A9
:10066000C4EBC41707EB470809EB88079760C76915
:100670001FB9176847F440071760AC4203D202F174
:100680002007D76000E0D160641C9C42E4D302687C
:1006900002F58052116180F84460002180F8451015
:1006A0000846D7E7704730B590F845100023012978
:1006B00008D0012280F84520022180F8441000244F
:1006C000816A1AE0022030BD0D685B1CC5F301256C
:1006D000022D0AD00D6815F4407F09D04163836B69
:1006E0005B1C8363012B12D012E08263016302E082
:1006F000856B6D1C8563C96881620D68002D01DB07
:10070000042BE1D300F8442F4470012030BD016375
:100710000B68C3F30D431B1FC363036B9B68036428
:10072000C96840F8281F02774477002030BD70B5B3
:100730000446006800F5805041694FF00005490605
:100740004FF0010608D5204600F0DAF92068402174
:1007500000F58050416109E04069C0070AD0204699
:1007600000F09AFA206800F58050466184F84460F1
:1007700084F8455020684FF4803100F58050416185
:10078000206800F58050406900040CD52046FFF732
:1007900089FF20684FF4004100F58050416184F8E2
:1007A000446084F8455070BD2DE9FC474FF00006C9
:1007B0000400B146009603D094F8440018B107E055
:1007C0000120BDE8FC8784F84560204600F0E2F88F
:1007D0006648016841F480410160006800F480408F
:1007E00001906348016821F4000101600168226AF8
:1007F00011430160206800F58050016841F001015B
:10080000016000F063FB05464FF4FA7709E000BF92
:1008100000F05CFB401BB84203D9032004F8440FEE
:1008200067E0206800F580500068C007F0D12068BC
:10083000006920F01C0500F0C1FC4E494E4A0144FD
:10084000914202D245F0080516E04C494C4A014459
:10085000914202D245F00C050EE04A494A4A014451
:10086000914209D3494908444949884202D245F096
:10087000040501E045F01005206805614FF40042D1
:100880000021204600F00AFA0125A8BBFF20FFF74F
:1008900081FE606888B300F019FB804641F288371A
:1008A0006A460121204600F0E9F800F00FFBA0EBBA
:1008B0000800B84217D800984007F1D54FF480528D
:1008C0000021204600F0EAF9B0B900F0FFFA8046B6
:1008D0006A460121204600F0D1F800F0F7FAA0EBBB
:1008E0000800B8420AD901212046FFF7C1FD04F8EB
:1008F000445F0320667064E724E018E000988006F7
:10090000E6D56A461F21204600F0B8F8D0B9009815
:10091000C10603D54FF40061E16000E0E6604007E6
:1009200001D5A66019E04FF48040A06015E0E068B2
:10093000A168C00840EA510082B20021204600F0C0
:10094000ADF930B101212046FFF792FD84F8445003
:1009500036E740F6FF70FFF71DFE49462046FFF7D9
:1009600087FD84F8445000202BE700004438024003
:100970000438014000D3CEFEC0E1E40040F1E9FDBF
:1009800040787D0100796CFC005A6202001F0AFA6F
:1009900080F0FA02F0B587B0044614216846FFF7EC
:1009A000B9FC3149206888425BD130480024016895
:1009B00041F000710160016801F00071059101686A
:1009C00041F080610160016801F08061059101687A
:1009D00041F000610160016801F00061059101686A
:1009E00041F004010160016801F004010591016812
:1009F00041F001010160016801F001010591016808
:100A000041F0020101600068022500F0020005903B
:100A10003220CDE9000502AA03260B2782E8D00088
:100A20006946134800F076F98620CDE9000502AA50
:100A3000694682E8D0000F4800F06CF94FF460502E
:100A4000CDE9000502AA694682E8D0000A4800F014
:100A500061F9002205213D2000F0C4FA3D2000F09C
:100A6000B3FA07B0F0BD0000008002403038024009
:100A70000008024000000240000402402DE9F04757
:100A8000044690F84400914682281DD0822084F8C4
:100A90004400226810694FF6FF7500F01C03208A9D
:100AA00005EAC02018434FF4F86303EA81110143BB
:100AB00021F0020040F00105156100F007FA06463A
:100AC00001274FF4803810E00220BDE8F08700BF16
:100AD00000F0FCF9801B404505D304F8447F00205A
:100AE00060700320F1E720680569E807F0D120680D
:100AF000406981B2C9F8001084F844700020E4E72E
:100B00000148006804F044B81C000020F8B5044611
:100B100090F84500012839D0012584F8455002207D
:100B200084F8440020680026016841F00801016053
:100B30002068006800902846FFF76CFC2168009848
:100B400008602068016841F00401016020680068C5
:100B500000900120FFF75EFC2168009808602046A5
:100B6000FFF768FC206800F58050816941F400516E
:100B70008161206800F58050816941F00201816146
:100B800084F8445084F845600020F8BD0220F8BD88
:100B9000F0B590F845200023012A11D0012780F8F4
:100BA0004570022280F84420002459B1C66A326898
:100BB000002A0ADA122100F8441F44700120F0BD17
:100BC0000220F0BD00F8447FF7E740F2F455A94257
:100BD0000BD9B1FBF5FCB1FBF5F205FB1C1CBCF11C
:100BE000000F00D0521C012A43D1326842F040521B
:100BF0003260C26AC1F30C015160C16A0A6842F0F6
:100C000000420A60C16AC968C16234E0D6F800C017
:100C10002CF0405CC6F800C033B9C66AD6F800C0F4
:100C20004CF0805CC6F800C0C66A7560561EB342C0
:100C300014D1C66AD6F800C04CF0005CC6F800C0FB
:100C4000C2F10106C6EBC61606EB4606D0F82CC06C
:100C500001EB8606C6F30C06CCF80460C66AD6F82B
:100C600000C04CF0004CC6F800C0C66A5B1CF668B9
:100C7000C6629342CAD3016801F580514A6952079E
:100C800005D504224A61016801F580514C6000F8E5
:100C9000447F44700020F0BD704700002DE9F04112
:100CA000044690F8440042281ED0422084F84400B4
:100CB000236818694FF6FF7600F01C05208A06EAC3
:100CC000C02028434FF4F86505EA8111014390B232
:100CD00041F0030558612068056100F0F7F8064609
:100CE00001274FF4803810E00220BDE8F08100BFFA
:100CF00000F0ECF8801B404505D304F8447F002049
:100D000060700320F1E720680569E807F0D184F8F6
:100D10004470EAE72DE9F84F00224FF0010803255F
:100D20004FF00F0E0B6808FA02F42340A3426ED175
:100D30004E68012E05D0022E03D0112E01D0122EA6
:100D400012D186684FEA420C05FA0CF7BE43CF6811
:100D500007FA0CF7374387604668A6430C79C4F35B
:100D60000014944034434460C668570005FA07FCF9
:100D70008C6826EA0C06BC403443C4604C68022CE4
:100D800001D0122C13D1D40800EB8404A346D4F86C
:100D9000209054074FEAD46A0EFA0AF629EA0609A7
:100DA0000E6906FA0AF646EA0906CBF820600668DC
:100DB0000C7926EA0C0604F00304BC4034430460BA
:100DC0004C68E40065D5364C266846F480462660BB
:100DD000246822F0030604F480440094314C344427
:100DE000A446D4F808489607370F0EFA07F6B4431E
:100DF0002D4EB04201D1002624E02C4EB04201D14C
:100E000001261FE02A4EB04202D102261AE040E03D
:100E1000284EB04201D1032614E0274EB04201D142
:100E200004260FE0254EB04201D105260AE0244EEB
:100E3000B04201D1062605E0224EB04201D107267C
:100E400000E00826BE402643CCF808681E4E3468F1
:100E50004F689C43FF0300D51C4334601A4C241D8B
:100E600026684F689E43BF0300D51E432660164E7A
:100E7000083634684F689C43FF0200D51C43346039
:100E8000114E0C3634684F689C43BF0200D51C439A
:100E90003460521C102AFFF445AFBDE8F88F000003
:100EA000443802400030014000000240000402408B
:100EB00000080240000C02400010024000140240F2
:100EC00000180240001C0240003C014001488068BC
:100ED0007047000020000020024881680278114419
:100EE00081607047200000200B4810B5016841F474
:100EF00000710160016841F480610160016841F4A2
:100F000080710160032000F08DF8002000F006F8E9
:100F100000F03EF8002010BD003C024010B5014634
:100F200088B00022192000F05DF8192000F04CF87C
:100F300013480024016841F001010160006805A91F
:100F400000F001000690684600F018F900F03CF946
:100F50000C494000B0FBF1F10C480B4A491E0260FD
:100F600040F2E732C0E90324C0E9011400F01CFBA1
:100F700010B1012008B010BD044800F031FBF9E7C2
:100F80004438024040420F0000000140CC340020B1
:100F90000C4882B0016841F480410160006800F4AF
:100FA000804000900748001F016841F080510160B7
:100FB0000068002200F0805000900F21901E02B0C7
:100FC00000F010B844380240002809DB00F01F028E
:100FD000012191404009800000F1E020C0F800119B
:100FE00070470000F0B40E4B1B680C46C3F302239D
:100FF000C3F10705042D00D90425191D072901D2C5
:10100000002300E0DB1E012606FA05F1491E2140FF
:1010100099409E40761E16403143F0BC00F03CBD26
:101020000CED00E0064900F0070208684FF6FF03E8
:10103000184040EA0220034A10430860704700004D
:101040000CED00E00000FA052DE9F0470E46050022
:1010500065D0DFF81481D8F80000F7B200F00F0077
:10106000B04207D288F80070D8F8000000F00F00F6
:10107000B04254D128683D4C810712D5400703D5B2
:10108000206840F4E05020602878000703D52068ED
:1010900040F4604020602068A96820F0F000084318
:1010A00020602878C0072DD03049686808390128A9
:1010B00012D0022813D0032811D00968890700290B
:1010C0002DDA216821F0030101432160FFF7FEFEC4
:1010D000814641F2883A0EE009688903EFE7096822
:1010E0008901ECE7FFF7F2FEA0EB0901514502D9B7
:1010F0000320BDE8F0872068696800F00C00B0EBC1
:10110000810FEFD1D8F80010404601F00F01B14235
:1011100007D90770006800F00F00B04201D001202D
:10112000E7E72878400705D52068E96820F4E05013
:10113000084320602878000706D52068296920F434
:10114000604040EAC100206000F04EF82168084A83
:10115000C1F30311515CC8400649086006480068A5
:10116000FFF7DCFE0020C4E7003C024008380240E4
:1011700044AF00082C000020240000200F22026051
:101180000C4A136803F003034360136803F0F00391
:101190008360136803F4E053C36012684FF4E053B4
:1011A00003EAD20202610448006800F00F00086000
:1011B0007047000008380240003C024001480068C7
:1011C000704700002C0000200448054900680968A9
:1011D000044AC1F34231515CC84070472C000020E2
:1011E0000838024054AF0008154810B5006810F0E8
:1011F0000C02144813D04110042A0FD0082A0ED133
:101200000F4C241F2268236802F03F025B0207D5BF
:101210002068C0F38810A0FB010106E0084610BD5D
:101220002168C1F38811A1FB00010023FFF728F812
:101230002168C1F30141491C4900B0FBF1F010BD28
:10124000083802400024F4002DE9F84F040076D05D
:101250002078DFF838A3CE4DC00749D0DAF8001067
:101260005046C1F38101012908D00068C0F3810014
:1012700002280AD1281D0068400206D5286880038C
:1012800036D560680028E2D032E06068B0F5803F73
:1012900010D0B0F5A02F286810D020F4803028603E
:1012A000286820F4802028606068A0B1FFF70EFE57
:1012B00006460CE0286840F48030F4E740F48020D3
:1012C0002860F7E7FFF702FE801B642873D82868C0
:1012D0008003F7D50CE0FFF7F9FD064605E000BFF7
:1012E000FFF7F4FD801B6428F0D828688003F7D44A
:1012F0002078DFF8A08280074FF000093ED5DAF8A9
:101300000010504611F00C0F09D00068C0F38100A6
:1013100002280BD19D48001F0068400206D42868AF
:10132000800715D5E068012809D111E0E068B8B15F
:101330000120C8F80000FFF7C9FD064605E020E1DE
:10134000FFF7C4FD801B0228C0D828688007F7D5A6
:101350002868216920F0F80040EAC10028600DE00B
:10136000C8F80090FFF7B2FD064604E0FFF7AEFDB7
:10137000801B02281FD828688007F7D42078000730
:1013800022D5824E844861696C3671B101210160B9
:10139000FFF79CFD074604E0FFF798FDC01B0228FD
:1013A00009D830688007F7D50EE0C0F80090FFF745
:1013B0008DFD074605E082E0FFF788FDC01B02288F
:1013C0007DD830688007F7D42078400768D5DFF8EB
:1013D000BCB100270BF1380BDBF80000C0000BD4C8
:1013E000DBF8001041F08051CBF80010DBF8000072
:1013F000012700F080500090684E3068C00510D47E
:10140000306840F480703060FFF760FD009005E0C8
:10141000FFF75CFD0099401A022850D83068C005DB
:10142000F6D55A4EA068683601280FD005283068D6
:1014300010D020F001003060306820F004003060EF
:10144000A068B8B1FFF742FD00900FE0306840F0AF
:101450000100F4E740F004003060F7E7FFF736FDE5
:101460000099411A41F28830814266D8306880077D
:10147000F4D50EE0FFF72AFD009007E0FFF726FD08
:101480000099411A41F28830814256D8306880076D
:10149000F4D42FB1DBF8001021F08051CBF800100C
:1014A000A069D0B3DAF800205146C2F38102022AC3
:1014B0004AD00228484607D0C8F8600000E03CE067
:1014C000FFF704FD04463BE04746C8F86000FFF71D
:1014D000FDFC064605E000BFFFF7F8FC801B022874
:1014E0002BD828688001F7D4D4E907010843A16A02
:1014F0002B4A490802EB0141626A41EA8211084322
:1015000094F82C1040EA01612048001F016001207E
:101510003866FFF7DBFC044605E034E0FFF7D6FC55
:10152000001B022809D828688001F7D52BE000BFEE
:10153000FFF7CCFC001B022802D90320BDE8F88F7E
:1015400028688001F4D41EE00128F7D00868E26919
:1015500000F48001914214D1226A00F03F019142CF
:101560000FD147F6C071626A0140914209D1A26A67
:1015700000F44031914204D1E16A00F07060884289
:1015800001D00120DAE70020D8E700000838024047
:101590000038024000004742800E47420070004081
:1015A0000000FFFF7047704710B5040003D094F8A7
:1015B0003D0010B107E0012010BD002084F83C0080
:1015C000204600F00CF8022084F83D00211D206820
:1015D00000F0ECF9012084F83D00002010BD7047B8
:1015E0000168CA6842F00102CA600068816801F0BF
:1015F0000701062903D0016841F0010101600020C4
:101600007047704770B50446006801694FF00005E7
:10161000C943890715D4C168C943890711D4E91E94
:10162000016101202077206880698007204602D070
:10163000FFF7E7FF04E000F098F8204600F096F886
:10164000257720680169C943490717D4C168C94390
:10165000490713D46FF0040101610220207720684C
:10166000806910F4407F204602D0FFF7CAFF04E0F3
:1016700000F07BF8204600F079F8257720680169B2
:10168000C943090716D4C168C943090712D46FF0CA
:1016900008010161042020772068C0698007204686
:1016A00002D0FFF7AEFF04E000F05FF8204600F044
:1016B0005DF8257720680169C943C90617D4C16858
:1016C000C943C90613D46FF01001016108202077C7
:1016D0002068C06910F4407F204602D0FFF791FFD8
:1016E00004E000F042F8204600F040F8257720683A
:1016F0000169C943C90708D1C168C943C90704D1F1
:10170000891E0161204600F033F820680169C94351
:10171000090609D4C168C943090605D46FF08001E0
:1017200001612046FFF73EFF20680169C943490671
:1017300009D4C168C943490605D46FF0400101616D
:10174000204600F01FF820680169C94389060BD4C0
:10175000C168C943890607D46FF0200101612046A2
:10176000BDE87040FFF71FBF70BD704770470000B5
:1017700000680349884201D1FFF7AEBB7047000003
:10178000000001407047FEE7114808B5016841F0CC
:1017900080010160016801F080010091016841F061
:1017A00004010160016801F004010091016841F049
:1017B00001010160016801F001010091016841F03F
:1017C00002010160006800F00200009008BD000006
:1017D00030380240FEB5384CC020251D2070A820AE
:1017E00060700120A0706420E070FF202870687095
:1017F0000026A8702F1DEE703E707E70BE70FE70C9
:101800003146304608F09CF82068E17803BA0A06B1
:1018100003F47F4342EA032203BA00BA03F47F03CE
:10182000084342EA1322A4F10C0142EA1060086066
:101830002868E97803BA0A0603F47F4342EA0322E0
:1018400003BA00BA03F47F03084342EA1322A4F167
:10185000080142EA106008603868F97803BA0A069D
:1018600003F47F4342EA032203BA03F47F0300BA7E
:1018700042EA1322084342EA1060211F231F086036
:101880000E480F490096CDE901101A1F111F0D488F
:1018900002F06CFF0B4803F00BF80A4890F82B009D
:1018A0004007084803D5BDE8FE4003F03DB8BDE859
:1018B000FE4003F003B8000010000020119B000858
:1018C000012B0008B4030020FEE77047012003F05D
:1018D00039F8FBE710B5502080F31188BFF34F8F24
:1018E000BFF36F8F09F07CF918B104494FF08050B5
:1018F0000860002080F3118810BD000004ED00E0B6
:1019000030B593B030216846FEF704FD14210CA8D1
:10191000FEF700FD19480025016841F08051016083
:10192000006800F0805011901548016841F4804132
:1019300001600068022400F48040119001200090B2
:10194000000401908001CDE9064008AA0420A821E6
:1019500082E813000B906846FFF776FC0CA90F2075
:1019600081E831004FF4A0500F90E0021090052163
:101970000CA8FFF769FB13B030BD000040380240EF
:10198000007000400548016841F47001016003499E
:101990004FF00060803908607047000088ED00E07B
:1019A0000148FFF72FBE0000CC340020F0B50268DC
:1019B000254C264D264E274F274B4FF0804CA042FA
:1019C00009D0604507D0A84205D0B04203D0B84244
:1019D00001D0984204D122F0700E4A6842EA0E0209
:1019E000A0421BD0604519D0A84217D0B04215D0F4
:1019F000B84213D0984211D0184DA8420ED0184DBD
:101A0000A8420BD0174DA84208D0174DA84205D0C8
:101A1000164DA84202D0164DA84203D122F44075BB
:101A2000CA682A434D6922F080022A4302608A680C
:101A3000C2620A688262A04201D0984201D109695B
:101A4000016301214161F0BD00000140000400403C
:101A500000080040000C004000040140004001402C
:101A6000004401400048014000180040001C0040B4
:101A700000200040FEE700000FB4054B10B503A99D
:101A8000044A029800F028F810BC5DF814FB00002E
:101A9000D52B00085C0100200907090E002804DB93
:101AA00000F1E02080F80014704700F00F0000F112
:101AB000E02080F8141D704702E008C8121F08C11A
:101AC000002AFAD170477047002001E001C1121FBF
:101AD000002AFBD1704700002DE9FF4F8BB09A46DA
:101AE0000F460546002606E025280BD052460D99E4
:101AF00090476D1C761C28780028F5D10FB0304631
:101B0000BDE8F08F0024A0460122604900E00443B4
:101B100015F8013F203B02FA03F00842F7D128787C
:101B20002E2817D115F8010F44F004042A280ED0EE
:101B30006FF02F022878A0F1300109290AD808EBAC
:101B4000880102EB410100EB01086D1CF2E757F838
:101B5000048B6D1C287869283ED006DC0028CDD087
:101B600063280BD0642804D136E0732810D0752880
:101B70004BD052460D999047761C85E017F8040B20
:101B80008DF8000000208DF80100E946012003E0F7
:101B900057F8049B4FF0FF3061074FF0000401D469
:101BA0000AE0641C44450DDA8442FADB19F804109B
:101BB0000029F6D106E0641C8442FCDB19F804100D
:101BC0000029F8D1264404E019F8010B52460D997A
:101BD0009047641EF8D257E001CF4FF00A0B00285F
:101BE00002DA40422D2102E0210504D52B218DF897
:101BF0002410012103E0E10705D02021F7E70DF1D2
:101C0000200908910CE00021F9E701CF4FF00A0B01
:101C1000F9E75946FEF796FB01F1300209F8012D6C
:101C20000028F6D1ADEB090000F1200B600701D4CC
:101C30004FF00108D84502DDA8EB0B0000E00020C2
:101C40008046002406E009A85246005D0D999047A1
:101C5000641C761C08988442F5DB04E03020524670
:101C60000D999047761CB8F10001A8F10108F5DC48
:101C700005E019F8010B52460D999047761CBBF10F
:101C80000001ABF1010BF4DC6D1C34E70928010005
:101C900010B504464068804722462068BDE81040E1
:101CA000014904F051BB0000911C000870B50546C5
:101CB0000C46880706D009A34FF4CE7213A11BA0CF
:101CC000FFF7DAFE04F092FAA96809682160A968B2
:101CD0000C60BDE8704004F095BA00002E2E2F4D28
:101CE0006964646C6577617265732F5468697264A6
:101CF0005F50617274792F4C7749502F7372632F44
:101D0000636F72652F6D656D702E63006D656D700C
:101D10005F667265653A206D656D2070726F7065E3
:101D2000726C7920616C69676E65640041737365DC
:101D30007274696F6E2022257322206661696C655A
:101D400064206174206C696E6520256420696E20B2
:101D500025730A0070B5044604F048FA0546A068E9
:101D60000468002C0FD021680160A00706D008A3EA
:101D70004FF4A47212A11BA0FFF77EFE284604F0C8
:101D800041FA204670BD284604F03CFA002070BDA0
:101D90002E2E2F4D6964646C6577617265732F54C4
:101DA000686972645F50617274792F4C7749502F63
:101DB0007372632F636F72652F6D656D702E630094
:101DC0006D656D705F6D616C6C6F633A206D656DF4
:101DD000702070726F7065726C7920616C69676ECB
:101DE00065640000417373657274696F6E2022250B
:101DF0007322206661696C6564206174206C696E71
:101E00006520256420696E2025730A0070B50A4D8F
:101E10000646002404EB440005EBC000017D29B117
:101E20008068B04202D1204600F034F9641CE4B26C
:101E30000A2CEFD370BD0000106C00202DE9F74F85
:101E400084B04FF00A0B00240646DA465F46D946B6
:101E500002940194CDF800404F4904EB440001EB9B
:101E6000C008039098F814500A2F16D0002D24D0E3
:101E7000012D08D0022D06D248A340F2251255A10B
:101E800064A0FFF7F9FD66B13168D8F8040081421B
:101E900007D160B207B0BDE8F08F002DE8D167B27E
:101EA0000BE0012D17D0022D07D3B8F812000099CE
:101EB000884202D34FFA84FA0090641CE4B20A2CE0
:101EC000CAD3059881074FF0FF30E3D40A2F18D00A
:101ED0001ADAFCB242E03048039950F83100002889
:101EE000B8F8120006D002998842E6D34FFA84F976
:101EF0000290E2E701998842DFD34FFA84FB019018
:101F0000DBE70599C907C5D0BAF10A0F0FDA0AF065
:101F1000FF04214804EB440150F8310090B11FA3A5
:101F200040F26F1245A13BA0FFF7A6FD0AE0BBF10E
:101F30000A0F02DA0BF0FF0404E0B9F10A0FA9DA84
:101F400009F0FF040A2C06D314A340F2811241A128
:101F500030A0FFF791FD204600F09CF80A2C06D334
:101F60000EA340F285123BA12AA0FFF785FD0A4887
:101F700004EB440100EBC105287D30B107A34FF409
:101F8000C37239A123A0FFF777FD0EB130686860F6
:101F9000002068827DE70000106C00202E2E2F4D5F
:101FA0006964646C6577617265732F5468697264E3
:101FB0005F50617274792F4C7749502F7372632F81
:101FC000636F72652F697076342F65746861727003
:101FD0002E6300007374617465203D3D20455448B4
:101FE0004152505F53544154455F50454E44494E11
:101FF00047207C7C207374617465203E3D204554ED
:10200000484152505F53544154455F535441424CF0
:1020100045000000417373657274696F6E2022255C
:102020007322206661696C6564206174206C696E3E
:102030006520256420696E2025730A006172705F37
:102040007461626C655B695D2E71203D3D204E556B
:102050004C4C000069203C204152505F5441424C9E
:10206000455F53495A4500006172705F7461626C4C
:10207000655B695D2E7374617465203D3D20455438
:10208000484152505F53544154455F454D50545957
:102090000000000070B5074C00EB4005002654F826
:1020A000350018B103F046FA44F8356004EBC5007A
:1020B000067570BD106C00202DE9F04385B00D0051
:1020C000074609D07C684FF480782088404539D194
:1020D0002079062836D109E01CA34FF4227229A1E9
:1020E0002CA0FFF7C9FC05B0BDE8F0836079042897
:1020F00028D16088082825D1D4F80E000490A16961
:10210000686820B1814202D10126334601E00026F1
:10211000022304F10802914604A9284600F096FB28
:10212000E08840450ED16EB1022204ABCDE9023207
:10213000291DCDE9001905F1250319464A4628460F
:1021400000F086FA384603F0F5F9CCE72E2E2F4D35
:102150006964646C6577617265732F546869726431
:102160005F50617274792F4C7749502F7372632FCF
:10217000636F72652F697076342F65746861727051
:102180002E6300006E6574696620213D204E554C1B
:102190004C000000417373657274696F6E202225D4
:1021A0007322206661696C6564206174206C696EBD
:1021B0006520256420696E2025730A00FEB515464A
:1021C0000E46040006D142A340F21B324EA152A09B
:1021D000FFF752FC36B93EA34FF4477258A14EA008
:1021E000FFF74AFC35B93AA340F21D3257A14AA085
:1021F000FFF742FC2146286800F07CFE08B1574BEF
:1022000039E02868C0F303110E291FD0A168636864
:1022100000EA01020B409A4208D080B2A0F57E414C
:10222000A93903D0E06880B304F10C054C4A4D494C
:10223000137803EB430001EBC000077D022F28D386
:102240002F684068874224D11A4631E001208DF87A
:10225000040000208DF805005E208DF806006878E7
:1022600001AB00F07F008DF80700A8788DF808001A
:10227000E8788DF809004FF40060009004F1250221
:102280003146204600F0C0FBFEBDFFE76FF00300C3
:10229000FAE7002000EB400301EBC3031F7D022F90
:1022A0000BD32F685B689F4207D1C0B21070024603
:1022B0003146204600F058F8E6E7401C40B20A28B4
:1022C000E8DB32462946204600F0D6F8DCE700007D
:1022D0002E2E2F4D6964646C6577617265732F547F
:1022E000686972645F50617274792F4C7749502F1E
:1022F0007372632F636F72652F697076342F657404
:10230000686172702E6300006E6574696620213DFD
:10231000204E554C4C000000417373657274696F18
:102320006E2022257322206661696C6564206174C9
:10233000206C696E6520256420696E2025730A0073
:102340007120213D204E554C4C00000069706164A5
:10235000647220213D204E554C4C00005CAF0008BB
:10236000EC000020106C00202DE9F84306461546CD
:1023700088461C4802EB450100EBC104207D022881
:1023800006D219A34FF43B7225A131A0FFF774FBCD
:10239000144A05EB4501207D02EBC1050C350228EE
:1023A00013D1608A0327B0F58E7F04D9211D3046F2
:1023B00000F006FA07E0B0F5877F06D32A46211D14
:1023C000304600F003FA00B927754FF40060009022
:1023D0002B4606F125024146304600F015FBBDE8CC
:1023E000F8830000106C00202E2E2F4D6964646C61
:1023F0006577617265732F54686972645F506172AA
:1024000074792F4C7749502F7372632F636F726505
:102410002F697076342F6574686172702E630000C6
:102420006172705F7461626C655B6172705F696438
:10243000785D2E7374617465203E3D20455448419B
:1024400052505F53544154455F535441424C4500F0
:10245000417373657274696F6E2022257322206642
:1024600061696C6564206174206C696E6520256407
:1024700020696E2025730A002DE9FC5F8246253015
:1024800001908846086814464FF0FF364FF0000B65
:10249000514600F02FFD002828D1D8F80000C0F3E5
:1024A00003110E2922D0B8F1000F1FD000281DD033
:1024B000524601214046FFF7C1FC070018D43949B4
:1024C00007EB470901EBC905287D002812D0012838
:1024D00008D0022806D234A340F2C73240A14AA055
:1024E000FFF7CAFABBF1000F0AD108E06FF00F0046
:1024F000BDE8FC9F01202875C5F808A000E034B9AC
:102500004146504600F05CF90646002CF0D0287D8C
:10251000DFF8908002280DD3454805F10C032146D1
:1025200007704FF4006000905046019A00F06CFA7A
:10253000064635E0012833D125464FF47B7668897D
:102540002989884207D1286828B117A3324639A1C2
:102550002DA0FFF791FA287B01280ED029890022AF
:10256000022002F099FB050018D0214602F05EFE21
:1025700058B1284602F0DEFF10E02D68002DDED1B4
:102580002546204603F030FA45B158F8390008B125
:1025900002F0D0FF48F83950002601E04FF0FF3636
:1025A0003046A5E7106C00202E2E2F4D6964646C18
:1025B0006577617265732F54686972645F506172E8
:1025C00074792F4C7749502F7372632F636F726544
:1025D0002F697076342F6574686172702E63000005
:1025E0006172705F7461626C655B695D2E737461AA
:1025F0007465203D3D2050454E44494E47206F7242
:1026000020535441424C4500417373657274696FA5
:102610006E2022257322206661696C6564206174D6
:10262000206C696E6520256420696E2025730A0080
:10263000EC0000206E6F207061636B657420717513
:102640006575657320616C6C6F77656421000000AF
:102650002DE9FF4F81B09846DDE90FA9DDF838B0CC
:1026600006004FF0000706D12BA34FF48B6238A170
:102670003BA0FFF701FA00221C21022002F00CFB14
:10268000050046D068891C2806D223A340F2634285
:102690003DA133A0FFF7F0F96C68119801F094FCAC
:1026A000E08096F82400062806D01BA340F26A4278
:1026B00042492BA0FFF7E0F9D8F80010A160B8F864
:1026C0000400A081DAF80010C4F81210BAF804006F
:1026D000E082DBF80000C4F80E00D9F80000A06129
:1026E0004FF4807020800820608006202071042034
:1026F000607140F60600DDE902230090294630466D
:1027000000F082F9284602F015FF384605B0BDE812
:10271000F08F4FF0FF30F9E72E2E2F4D6964646C77
:102720006577617265732F54686972645F50617276
:1027300074792F4C7749502F7372632F636F7265D2
:102740002F697076342F6574686172702E63000093
:102750006E6574696620213D204E554C4C0000008A
:10276000417373657274696F6E202225732220662F
:1027700061696C6564206174206C696E65202564F4
:1027800020696E2025730A00636865636B20746896
:10279000617420666972737420706275662063616B
:1027A0006E20686F6C642073747275637420657436
:1027B000686172705F68647200000000A4B1000874
:1027C000014A00F003B800005CAF00087FB5064D79
:1027D000031D0124CDE90035CDE90214213319464A
:1027E000FFF736FF04B070BD62AF000870B5164D3C
:1027F000002400BF04EB440005EBC002107DF0B1E3
:10280000518A491C89B25182B1F5967F0AD20128BA
:1028100006D003280AD004280AD001280BD00EE0E5
:10282000052908D32046FFF735FC08E0042000E026
:102830000220107503E0111D9068FFF7C1FF641CB2
:10284000E4B20A2CD6D370BD106C0020F8B5044653
:1028500090F824001F4616460D46062806D020A3F1
:1028600040F2AB122CA135A0FFF706F99DB3286802
:1028700088B3214600F03EFB68BB2878C0F3031004
:102880000E2829D0224639462846FFF7D7FA0028D5
:1028900020DB00EB40013348022300EBC10213753B
:1028A00094603368D360B38813820023538250F856
:1028B000315075B140F831304FF40060009033462C
:1028C00004F125022946204600F09EF8284602F031
:1028D00031FE0020F8BDFFE76FF00F00FAE70000BF
:1028E0002E2E2F4D6964646C6577617265732F5469
:1028F000686972645F50617274792F4C7749502F08
:102900007372632F636F72652F697076342F6574ED
:10291000686172702E6300006E657469662D3E6892
:1029200077616464725F6C656E203D3D204554485C
:102930005F4857414444525F4C454E0041737365B4
:102940007274696F6E2022257322206661696C653E
:1029500064206174206C696E6520256420696E2096
:1029600025730A00106C002070B5044640890D469E
:102970000E283CD9606801788689CA0714D00129DD
:1029800005D006221F49FDF7D0FC48B10CE0417884
:1029900051B980785E2807D1607B40F0100002E0DA
:1029A000607B40F0080060736FF00D01082E03D0CB
:1029B000B6F5C16F1BD10FE095F82B00000716D5B7
:1029C00060890E2813DB204602F08AFE78B929467A
:1029D000204600F0D1FB12E095F82B00000706D549
:1029E00060890E2803DB204602F07AFE18B12046EB
:1029F00002F0A0FD03E029462046FFF75DFB002022
:102A000070BD00005CAF00082DE9F04104461F4690
:102A100090460E46069801F0D7FA05460E2130463C
:102A200002F05EFE18B16FF00100BDE8F081706841
:102A3000858139680160B9888180D8F80020C0F8A4
:102A40000620B8F80410418194F82400062806D026
:102A500006A340F22B1213A11FA0FFF70DF8314679
:102A60002046A269BDE8F041104700002E2E2F4DF0
:102A70006964646C6577617265732F546869726408
:102A80005F50617274792F4C7749502F7372632FA6
:102A90006E657469662F65746865726E65742E6301
:102AA000000000006E657469662D3E68776164649D
:102AB000725F6C656E206D757374206265203620C0
:102AC000666F722065746865726E65745F6F757489
:102AD0007075742100000000417373657274696F32
:102AE0006E2022257322206661696C656420617402
:102AF000206C696E6520256420696E2025730A00AC
:102B000010B5040006D10BA340F227220EA112A09B
:102B1000FEF7B2FF732084F82C00742084F82D0097
:102B2000174860611748A061204601F005F90020B0
:102B300010BD00002E2E2F5372632F6574686572CE
:102B40006E657469662E63006E6574696620213D4A
:102B5000204E554C4C000000417373657274696FD0
:102B60006E2022257322206661696C656420617481
:102B7000206C696E6520256420696E2025730A002B
:102B8000BD2100081D3F0008104E04464FF0FF37DE
:102B90003946306802F024F80028F9D10C4803F0D7
:102BA000A1FB204601F05CF905000AD0226921460C
:102BB000904710B1284602F0BDFC054803F0A6FB83
:102BC000ECE7034803F0A2FBE2E700001C00002052
:102BD0003C00002038B504468DF80000694603200B
:102BE000ABBE204638BD0A46032100F0F3B8000012
:102BF0002DE9FE4F8A4643490546D1F8088098F8EA
:102C000000000007840E142C76D36889042873D33F
:102C10006868007800286FD008286DD1486901F1F4
:102C20001407C0F303120E2A66D08946096800F023
:102C300061F9002860D1288908285DD304F10E01CC
:102C40000E46284602F04CFD00282DD0288900228F
:102C5000204481B2022002F01FF806004CD0718996
:102C600004F10800814216D3224641467068FDF700
:102C700038FB6142304602F033FD002806D022A323
:102C8000AF222FA13CA0FEF7F7FE04E02946304614
:102C900002F0CCFA18B1304602F04CFC2CE0284689
:102CA00002F048FC35460CE07142284602F018FD5F
:102CB000002806D014A3C02239A12FA0FEF7DCFE05
:102CC0001AE0214628466E6802F00AFDA0B968683D
:102CD0003968FF22C160D9F81010016100213170FC
:102CE00071800272418101228DE806040A46FF23A9
:102CF0003946284600F012FB2846BDE8FE4F02F098
:102D000019BC00000C3500202E2E2F4D6964646C18
:102D10006577617265732F54686972645F50617280
:102D200074792F4C7749502F7372632F636F7265DC
:102D30002F697076342F69636D702E630000000078
:102D400069636D705F696E7075743A206D6F766936
:102D50006E6720722D3E7061796C6F616420746FB4
:102D60002069636D702068656164657220666169C1
:102D70006C65640A00000000417373657274696FCA
:102D80006E2022257322206661696C65642061745F
:102D9000206C696E6520256420696E2025730A0009
:102DA00069636D705F696E7075743A2072657374D3
:102DB0006F72696E67206F726967696E616C2070EF
:102DC0002D3E7061796C6F6164206661696C656429
:102DD0000A0000002DE9FF4791468846064600227A
:102DE0002421012001F058FF050031D068892428F2
:102DF00006D218A340F2611224A12FA0FEF73CFED8
:102E00006C6877681C2284F8008084F801904FF089
:102E10000008A4F80480A4F8068068687168083087
:102E2000FDF75FFAF868039003A800F017FC60B1A3
:102E3000A4F802800122CDF80080CDE90120FF2313
:102E400003AA0021284600F069FA284602F072FB26
:102E5000BDE8FF872E2E2F4D6964646C6577617223
:102E600065732F54686972645F50617274792F4C76
:102E70007749502F7372632F636F72652F69707675
:102E8000342F69636D702E63000000006368656312
:102E90006B20746861742066697273742070627547
:102EA000662063616E20686F6C642069636D7020BA
:102EB0006D65737361676500417373657274696FE3
:102EC0006E2022257322206661696C65642061741E
:102ED000206C696E6520256420696E2025730A00C8
:102EE0000A460B21FFF776BFEFF30580002800D0DC
:102EF00001207047421C12D088B191F82B20920714
:102F00000BD54B68834208D0896800EA01020B4068
:102F10009A4202D10143491C01D000207047012090
:102F2000704700002DE9F74F86B00446079800254A
:102F30001427408CAE1F1438C11700EB5170C0F33A
:102F4000CF0B60680590017801F00F01052904D0CE
:102F500056A340F2E12264A10BE0C08801F034F8EE
:102F6000C0F30C01029180040AD550A340F2E6227E
:102F700067A16EA0FEF780FD304609B0BDE8F08F76
:102F8000208914381FFA80F880E000BFB8EBCB0F1F
:102F900001D34FEACB0080B203900022142102201B
:102FA00001F07AFE5FEA000A78D06089142806D220
:102FB0003EA34FF4427267A15CA0FEF75DFD1422B0
:102FC000DAF804000599FDF78CF9DAF804000490AA
:102FD000039E2BE06089C01B85B2AE4200D235460D
:102FE00015B3052001F070FB5FEA000953D060685B
:102FF0004B463844CDE9000502222946042002F060
:1030000003F80090F0B3204602F0EEFC5949C9E9FC
:1030100004145046009902F067F8701B0604360C41
:1030200006D000272468D5E724680027002ED1D1D8
:10303000781987B20798418C029814394145C0F33A
:103040000C0001DA40F4005000F0BEFF0499C88083
:103050000398143080B200F0B7FF049948800498B8
:103060000021418107985146089A43699847504684
:1030700002F060FA0398A8EB00001FFA80F80298AB
:10308000584401E00DE009E080B20290B8F1000080
:103090007FF47CAF71E7504602F04CFA4FF0FF30FE
:1030A0006BE7484600F008FBF5E700002E2E2F4D99
:1030B0006964646C6577617265732F5468697264C2
:1030C0005F50617274792F4C7749502F7372632F60
:1030D000636F72652F697076342F6970345F667222
:1030E00061672E63000000006970345F667261677B
:1030F000282920646F6573206E6F7420737570705B
:103100006F7274204950206F7074696F6E73000085
:1031100069705F6672616728293A204D4620616CAC
:103120007265616479207365740000004173736592
:103130007274696F6E2022257322206661696C6546
:1031400064206174206C696E6520256420696E209E
:1031500025730A0074686973206E65656473206165
:10316000207062756620696E206F6E6520706965DB
:1031700063652100A13C00082DE9F05F4568064623
:103180000F4628780421B1EB101F03D0304602F01F
:10319000D1F98DE000F00F004FF6FF7101EA8008D1
:1031A000688800F011FF04463089A04203D9214607
:1031B000304602F04DFB71894145E7D33089A0428A
:1031C000E4D3B8F1140FE1D32969DFF848A1C1F3C2
:1031D00003100E28CAF81410EA68CAF8102014D098
:1031E000DFF834B14FF001093C4600BF94F82B00E2
:1031F000C00712D0616881B1DAF81400884220D08B
:103200002146FFF777FEE0B907E097F82B00C007EB
:103210000FD0786868B13C4613E0B9F1000F0AD0CE
:103220009AF814007F2804D04FF00009DBF8004022
:1032300002E0002405E02468BC4200D12468002C90
:10324000D4D13946DAF81000FFF754FE00289DD19A
:103250009AF81000D146C0F303100E2896D0002C27
:1032600094D0E88830F0C00005D0304600F01CF95A
:1032700006001DD07568C9F80850C9E900472978CB
:1032800030460907890EA9F80C10C8F1000102F0B8
:1032900027FA687A012818D0062811D011280AD0F8
:1032A0004F462146D9F81400FFF724FE90B11FE0E5
:1032B0000020BDE8F09F3946304606F0D1FC1AE008
:1032C0003946304603F082FD15E039463046FFF7B7
:1032D0008FFC10E0387DC0F303100E2808D0414663
:1032E000304602F000FA022130467560FFF77BFCA1
:1032F000304602F01FF90021C9F80010C9F8041087
:10330000C9F80810A9F80C10C9F81010C9F8141061
:10331000CEE700000C35002088000020FEB5DDE976
:103320000954089E1AB109B10F6807B9211D00960A
:10333000CDE9015400F002F8FEBD00002DE9F84F80
:103340000546DDE90BA8C089DDF828B01F46164602
:103350008946012806D02CA340F2333237A13AA087
:10336000FEF78AFB002E38D01421284602F0B8F967
:1033700018B16FF00100BDE8F88F68896C681428F7
:1033800006D221A34FF4587239A12FA0FEF774FB87
:10339000277284F809A0306820614520207084F8E5
:1033A00001B0288900F010FE3D4F60804FF0000A08
:1033B000A4F806A0388800F007FEA0803888401CDA
:1033C0003880B9F1000F05D0D9F80000E060A4F80A
:1033D0000AA006E033480068F8E768686E460069AE
:1033E0000090B8F8220040B12989814205D93246BF
:1033F00041462846FFF796FDBDE7D8F81430404611
:10340000324629469847B6E72E2E2F4D6964646CE4
:103410006577617265732F54686972645F50617279
:1034200074792F4C7749502F7372632F636F7265D5
:103430002F697076342F6970342E6300702D3E72C0
:103440006566203D3D203100417373657274696F7C
:103450006E2022257322206661696C656420617488
:10346000206C696E6520256420696E2025730A0032
:10347000636865636B207468617420666972737435
:1034800020706275662063616E20686F6C642073C3
:1034900074727563742069705F6864720000000064
:1034A000EE000020A4B000082DE9F05F45688346D7
:1034B000287800F00F0005287DD1E88800F084FD11
:1034C000C004070C688800F07FFD297801F00F0127
:1034D000494200EB81001FFA80F8584601F09CFE3B
:1034E0005D4C0646208830440A2809D931462846D2
:1034F00000F080FB00285ED0208830440A285AD88B
:10350000A14664684FF0000A0CE06069E9688842EF
:1035100007D1A0692969884203D1A089A988884276
:1035200003D02468002CF0D106E02CB1E88800F02C
:103530004BFDC0041BD025E0042001F0C5F80400B9
:103540000AD13146284600F055FBB0427FDB04200B
:1035500001F0BAF804007AD02021FCF7DBFE03204A
:10356000E077D9F804102160C9F8044004E0E0894C
:1035700000F02AFDC00405D01422294604F10800F9
:10358000FCF7AFFEA87940F340156D1C08D007EB9F
:10359000080080B2B8425AD34FF6EB71884256D831
:1035A0002A465946204600F0CFF8411C4FD0B9F8C2
:1035B0000020324400E04AE0A9F8002035B107EBD2
:1035C0000801A183A17F41F00101A17701283CD12D
:1035D000A08B14221430A083606804F108014568B0
:1035E00028462E68FCF77DFEA08B00F0EDFC68807D
:1035F000A5F806A0A5F80AA06FF01308656809E011
:1036000041463046776802F06BF83146284601F0B3
:103610006BFD3E68002EF3D1D9F804104E468C4263
:1036200005D1002105E00868A04202D0014600292A
:10363000F9D1204600F0B8F9284601F0EDFD3188B7
:10364000081A30802846BDE8F09F0020FBE7584666
:1036500001F070FFF9E70000F000002070B50446AB
:10366000134813E090F82B10CA070FD04A070DD566
:1036700043685BB182682568134005EA02069E42F2
:1036800014D0890702D4C1688D420FD00068002889
:10369000E8D10848006840B190F82B10CA0704D060
:1036A000490702D54168002900D1002070BD000003
:1036B000880000208C00002010B5040006D106A36D
:1036C00040F2AE2213A116A0FEF7D6F92146BDE8BE
:1036D0001040052000F084BF2E2E2F4D6964646CCD
:1036E0006577617265732F54686972645F506172A7
:1036F00074792F4C7749502F7372632F636F726503
:103700002F697076342F6970345F667261672E633B
:10371000000000007020213D204E554C4C00000060
:10372000417373657274696F6E202225732220665F
:1037300061696C6564206174206C696E6520256424
:1037400020696E2025730A002DE9F0474C68064673
:1037500092460F4600254FF00108608800F034FCC7
:10376000217801F00F01494200EB8109E08800F067
:103770002BFCC0047C68010C0020206001EB0900D8
:10378000A18083B2E380726826E05068B0F804C07C
:10379000614515D222606DB1B5F806C061457BD395
:1037A0008088834278D82F60A088844506D04FF067
:1037B000000803E0808883426ED8776072B12DE004
:1037C0006AD0C288914267D325B1EA88624501D0A8
:1037D0004FF0000802680546002AD6D1002D12D00D
:1037E000E888A188884206D932A340F2AB1240A1F2
:1037F00047A0FEF741F92F60E888A18888420DD0E4
:103800004FF000080AE07068002806D029A340F2B3
:10381000B31249A13EA0FEF72FF97760BAF1000F6D
:1038200002D1B07FC00732D0B8F1000F32D0726839
:10383000002A2FD05068808800282BD1216820468C
:1038400029B14C68C088A1888842F7D022E0B8F13D
:10385000000F1FD032B917A34FF4EA7244A12CA075
:10386000FEF70AF970684068A04206D111A340F241
:10387000D5123FA126A0FEF7FFF8206830B10DA3B6
:1038800040F2D7123EA122A0FEF7F6F80120BDE8D3
:10389000F08701E00020FAE7384601F0BDFC014660
:1038A00040480288511A0180384601F043FE4FF02B
:1038B000FF30ECE72E2E2F4D6964646C65776172E2
:1038C00065732F54686972645F50617274792F4C0C
:1038D0007749502F7372632F636F72652F6970760B
:1038E000342F6970345F667261672E6300000000D8
:1038F000636865636B20667261676D656E747320C3
:10390000646F6E2774206F7665726C6170000000C2
:10391000417373657274696F6E202225732220666D
:1039200061696C6564206174206C696E6520256432
:1039300020696E2025730A006E6F207072657669AB
:103940006F757320667261676D656E742C20746884
:103950006973206D757374206265207468652066D4
:103960006972737420667261676D656E7421000000
:1039700073616E69747920636865636B0000000091
:1039800076616C69646174655F64617461677261BA
:103990006D3A6E6578745F70627566213D4E554C68
:1039A0004C000000F000002070B504460C480D46A5
:1039B0004168A14202D1216841600AE0002D06D190
:1039C00008A340F2451216A11CA0FEF755F8206886
:1039D00028602146BDE87040042000F001BE0000D0
:1039E000F00000202E2E2F4D6964646C65776172A3
:1039F00065732F54686972645F50617274792F4CDB
:103A00007749502F7372632F636F72652F697076D9
:103A1000342F6970345F667261672E6300000000A6
:103A200073616E69747920636865636B206C696E7D
:103A30006B6564206C6973740000000041737365EA
:103A40007274696F6E2022257322206661696C652D
:103A500064206174206C696E6520256420696E2085
:103A600025730A002DE9F047054600240F46A942B8
:103A700005D12FA3AB223DA13FA0FDF7FDFF002FF5
:103A800008D03868A84205D029A3AD2244A13AA0A5
:103A9000FDF7F2FF6E684FF4803870688188002966
:103AA0001AD100686860142205F108017068FCF7FB
:103AB00018FC01213046FFF713FA304601F0ACFB49
:103AC0000446404505D31AA3BC223AA12AA0FDF71B
:103AD000D3FF304601F02EFD6E6812E07068B146EB
:103AE0000668484601F098FB0444444505D310A3FA
:103AF000CC2230A120A0FDF7BFFFA4B2484601F0C0
:103B000019FD002EEAD139462846FFF74DFF314D09
:103B10002888A04205D206A3D2222FA116A0FDF725
:103B2000ABFF2888001B28802046BDE8F0870000F6
:103B30002E2E2F4D6964646C6577617265732F5406
:103B4000686972645F50617274792F4C7749502FA5
:103B50007372632F636F72652F697076342F69708B
:103B6000345F667261672E630000000070726576D4
:103B700020213D2069707200417373657274696F12
:103B80006E2022257322206661696C656420617451
:103B9000206C696E6520256420696E2025730A00FB
:103BA000707265762D3E6E657874203D3D2069709B
:103BB0007200000070627566735F667265656420EE
:103BC0002B20636C656E203C3D203078666666660F
:103BD00000000000F000002069705F72656173737F
:103BE0005F70627566636F756E74203E3D20636C16
:103BF000656E00002DE9F0471D4F894606460024FA
:103C00000022134611461546786822E0D0F814C009
:103C1000D6F80C80C4450BD1D0F818C0D6F8108067
:103C2000C44505D1B0F80CC0B6F80480C44509D02D
:103C30006D1C2AB190F81FC092F81F80C44501D8AE
:103C400002461946D0F800C0BCF1000F00D0034670
:103C500060460028DAD11AB11046FFF703FF04448A
:103C60004C4501DA012DCBDC2046BDE8F087000091
:103C7000F000002070B50948002544680BE0E07FA3
:103C800020B1401EE0772546246804E020462468E1
:103C90002946FFF7E7FE002CF1D170BDF0000020AF
:103CA00010B5040006D108A34FF42E7215A118A078
:103CB000FDF7E2FE606908B101F03CFC2046BDE87A
:103CC0001040FFF7F9BC00002E2E2F4D6964646C84
:103CD0006577617265732F54686972645F506172B1
:103CE00074792F4C7749502F7372632F636F72650D
:103CF0002F697076342F6970345F667261672E6346
:103D00000000000070637220213D204E554C4C0095
:103D1000417373657274696F6E2022257322206669
:103D200061696C6564206174206C696E652025642E
:103D300020696E2025730A0070B58CB0434D04468F
:103D40000026414800962860012068602882AA2148
:103D50008DF80410BB218DF80510CC218DF80610CC
:103D6000DD218DF80710EE218DF80810FF218DF868
:103D7000091001A9C5E90510C005C5E90760284675
:103D8000FCF712FD28B994F82B0040F0040084F8E9
:103D90002B0004232E4A2F492C48FCF747FC2D4AC0
:103DA00004238032A2F580712848FCF705FC062028
:103DB00084F8240068690121007884F82500686986
:103DC000407884F826006869807884F8270068695C
:103DD000C07884F828006869007984F82900686947
:103DE000407984F82A0040F2DC50608494F82B007B
:103DF00040F00A0084F82B00039603A8049600F014
:103E0000A7FE15491C220860144905A8FCF769FAA9
:103E1000214605A800F016FF0C48FCF777FE6A461D
:103E20001D210A48FCF72AFE00981D2140F00B02D4
:103E300006480092FCF732FF6A461D210348FCF752
:103E40001DFE0CB070BD00000080024084340020D4
:103E5000B41C0020640400201C00002028AF0008CF
:103E60002DE9F84F0020044600902B48FCF71BFC7E
:103E700010B10020BDE8F88F2748818FD0F840901E
:103E80000904090C2DD00322042000F005FF009046
:103E900038B32148009D40F2F45BD0F830806E8941
:103EA00000270FE0A4F2F4525242FCF71AFAD8F8B5
:103EB0000C008046D0F808903F1BAAF2F45600246C
:103EC00007F2F457686806EB040ADA4509EB0401C7
:103ED0003844E7D83246FCF704FA2D683444002D04
:103EE000DDD10D480022016B05E00B6843F0004373
:103EF0000B60C968521C836B9342F6D80021816322
:103F0000006800F580504269120602D580224261A5
:103F100081600098AEE70000843400202DE9F05F56
:103F200027480D46C66A002083460446D6F808A0F6
:103F300031E0306800280CDB6F894FF0000818E092
:103F4000A4F2F4525242FCF7CCF9F668306800282B
:103F500002DA6FF0070025E0D6F808A0A8EB04000D
:103F600000F2F458ABEB0400A9F2F45700F2F45B52
:103F7000002407EB040940F2F451894569680AEB13
:103F800004004144DCD83A46FCF7ABF90BEB0700E0
:103F90002D683C448346002DCBD101460848FCF7F0
:103FA000F7FD00200649096801F580514A6992062B
:103FB00003D520224A6100224A60BDE8F09F00003C
:103FC0008434002000BA704740BA704710B502F040
:103FD0004BF900F0CBF800F051FB00F037FC05F096
:103FE0003DFE02F0F1FEBDE8104002F04DBA0000C7
:103FF00088B0FCF779FFFDF783FCFDF7C5FBFDF703
:10400000E9FB1C2206496846FCF76BF9002168466B
:1040100000F018FE0349086000F09BFCFEE700007A
:104020000CAF00080000002001460020842900D0C9
:10403000C81C704770B5040040D0A00706D020A36C
:104040004FF4D6722AA133A0FDF716FD3B4D286828
:10405000844202D36868844206D319A34FF4D7720E
:1040600037A12CA0FDF708FD2868844202D36868B8
:10407000844205D302F0BAF8BDE8704002F0C2B83D
:104080002E480C3002F02EF914F8040C083C30B91C
:104090000BA34FF4E07230A11EA0FDF7EDFC002051
:1040A0002071A868844200D2AC60204601F0EAFC8E
:1040B000BDE8704021480C3002F028B970BD000006
:1040C0002E2E2F4D6964646C6577617265732F5471
:1040D000686972645F50617274792F4C7749502F10
:1040E0007372632F636F72652F6D656D2E630000B1
:1040F0006D656D5F667265653A2073616E6974798E
:1041000020636865636B20616C69676E6D656E74B2
:1041100000000000417373657274696F6E20222580
:104120007322206661696C6564206174206C696E1D
:104130006520256420696E2025730A004000002058
:104140006D656D5F667265653A206C6567616C20B0
:104150006D656D6F727900006D656D5F6672656586
:104160003A206D656D2D3E757365640010B511487C
:10417000114A20F003004FF4C8631060038000214F
:104180004180017100F5C861012451600C710B8000
:104190004B80906002F10C0002F0A9F8002808D0D2
:1041A000BDE8104005A34FF4CC7210A116A0FDF796
:1041B00063BC10BD27350020400000202E2E2F4D5F
:1041C0006964646C6577617265732F5468697264A1
:1041D0005F50617274792F4C7749502F7372632F3F
:1041E000636F72652F6D656D2E6300006661696C8B
:1041F000656420746F20637265617465206D656D00
:104200005F6D757465780000417373657274696FD2
:104210006E2022257322206661696C6564206174BA
:10422000206C696E6520256420696E2025730A0064
:104230002DE9F04700280DD04FF6FC71C01C00EAB4
:1042400001044FF4C8690C2C01D20C2404E04C4545
:1042500002D90020BDE8F0873A4802F043F8394E11
:10426000C4F5C8630C3E3268B068811A89B262E056
:1042700055182F79002F5DD12F887F1A083FA7424C
:1042800058D32B8804F114075B1A083B4FF0010C3C
:10429000BB4215D30B1908339FB2D3194FF0000856
:1042A00083F80480B5F80080A3F8008059802F803F
:1042B00085F804C01988494504D0931CCF5201E009
:1042C00085F804C0854213D1716801E0008810446C
:1042D00003790BB18842F9D1B060884208D00079E7
:1042E00030B119A340F2CF2223A12AA0FDF7C4FBCD
:1042F000144802F00BF8281971680830884206D972
:1043000011A340F2D3222DA122A0FDF7B5FBA807EF
:104310000DD00DA340F2D52234A11EA0FDF7ACFBB9
:1043200009A340F2D7223DA11AA0FDF7A5FB05F194
:1043300008008FE7515A8B429AD8024801F0E6FFF5
:1043400087E700004C0000202E2E2F4D6964646C1E
:104350006577617265732F54686972645F5061722A
:1043600074792F4C7749502F7372632F636F726586
:104370002F6D656D2E6300006D656D5F6D616C6CFA
:104380006F633A20216C667265652D3E75736564B6
:1043900000000000417373657274696F6E202225FE
:1043A0007322206661696C6564206174206C696E9B
:1043B0006520256420696E2025730A006D656D5F98
:1043C0006D616C6C6F633A20616C6C6F63617465D6
:1043D00064206D656D6F7279206E6F742061626FFD
:1043E00076652072616D5F656E642E006D656D5F30
:1043F0006D616C6C6F633A20616C6C6F63617465A6
:1044000064206D656D6F72792070726F7065726C6B
:104410007920616C69676E65642E00006D656D5F63
:104420006D616C6C6F633A2073616E69747920639F
:104430006865636B20616C69676E6D656E74000002
:104440002DE9F04705464FF6FC70C91C01EA00044F
:104450004FF4C86A0C2C01D20C2401E054452DD82D
:104460003A4F3868854202D37868854206D338A32C
:1044700040F2F31242A148A0FDF7FEFA38688542E7
:1044800002D379688D4204D301F0B0FE01F0BAFE88
:1044900019E0A5F10806B846301A87B23088C01B6B
:1044A00008381FFA80F94C4506D929A340F20622A4
:1044B00043A139A0FDF7E0FA4C4503D94FF00000C5
:1044C000BDE8F08701D12846FAE7204800F10C004A
:1044D00001F008FF3288D8F80010404602EB0108CE
:1044E000002398F80420DAB104F114024A4512D8E6
:1044F0003A19083294B2D0F808C00A19624500D2BD
:104500008260137130881080578034801088504545
:1045100001D0891C44520D480C3001F0F7FED2E75F
:104520003A1908328468B8F800C092B2444501D103
:104530008C18846088180371A0F800C0478032800E
:1045400000885045E7D0891C4252E4E74000002033
:104550002E2E2F4D6964646C6577617265732F54DC
:10456000686972645F50617274792F4C7749502F7B
:104570007372632F636F72652F6D656D2E6300001C
:104580006D656D5F7472696D3A206C6567616C2052
:104590006D656D6F72790000417373657274696F38
:1045A0006E2022257322206661696C656420617427
:1045B000206C696E6520256420696E2025730A00D1
:1045C0006D656D5F7472696D2063616E206F6E6CD6
:1045D0007920736872696E6B206D656D6F727900FA
:1045E0000D2806D307A340F2DB1212A118A0FDF795
:1045F00043BA002904D0204A52F82000FDF756BBE8
:10460000704700002E2E2F4D6964646C65776172CF
:1046100065732F54686972645F50617274792F4CAE
:104620007749502F7372632F636F72652F6D656DBD
:10463000702E63006D656D705F667265653A2074FB
:10464000797065203C204D454D505F4D415800002C
:10465000417373657274696F6E2022257322206620
:1046600061696C6564206174206C696E65202564E5
:1046700020696E2025730A0004B0000830B5064D8D
:10468000002400BF55F8240000F008F8641CA4B210
:104690000D2CF7D330BD000004B000088268002163
:1046A00011604168C91C21F00301002207E0836802
:1046B000521C1B680B608368196003881944438887
:1046C0009342F4DC7047000010B50D2808D308A30E
:1046D00040F2871212A11AA0FDF7CEF9002010BDFA
:1046E000214951F82000BDE81040FDF733BB000020
:1046F0002E2E2F4D6964646C6577617265732F543B
:10470000686972645F50617274792F4C7749502FD9
:104710007372632F636F72652F6D656D702E63000A
:104720006D656D705F6D616C6C6F633A207479704C
:1047300065203C204D454D505F4D41580000000024
:10474000417373657274696F6E202225732220662F
:1047500061696C6564206174206C696E65202564F4
:1047600020696E2025730A0004B000082DE9F04787
:10477000044608A8984690E8E00091468A46002E34
:1047800005D114A3FB2220A125A0FDF775F9002077
:104790006060A060E06084F82B00032084F82000B3
:1047A000E561294D43464A46287884F82E00401C8E
:1047B000287051462046276100F056F82046B04741
:1047C00010B10020BDE8F0876868206020466C606A
:1047D000F8E700002E2E2F4D6964646C65776172D6
:1047E00065732F54686972645F50617274792F4CDD
:1047F0007749502F7372632F636F72652F6E6574E4
:1048000069662E63000000004E6F20696E69742097
:1048100066756E6374696F6E20676976656E0000F9
:10482000417373657274696F6E202225732220664E
:1048300061696C6564206174206C696E6520256413
:1048400020696E2025730A00840000207047C90784
:1048500009D04168002906D090F82B10090702D52D
:10486000011DFDF7ADBF70472DE9F0411E4605461D
:1048700017460C000FD0206868B11146284600F09A
:104880004FF83146284600F026F821462846BDE874
:10489000F04100F025B8284600F022F839462846B5
:1048A00000F03EF831462846BDE8F04100F013B86C
:1048B00001498860704700008400002090F82B10A8
:1048C000CA0707D021F0010180F82B10090701D594
:1048D000FDF79CBA704701B10968C16070470000DC
:1048E00038B50C00054601D0206801E00B4800688F
:1048F0000090696888420ED06946281D02F0D6FEF5
:104900006946281D05F07AFA34B1206868600121F3
:104910002846FFF79CFF38BD0020F7E7A4B0000849
:1049200001B109688160704790F82B10CA0708D15F
:1049300041F0010180F82B10490702D50321FFF750
:1049400086BF704710B500B9012005F05FFB00205D
:1049500010BD10B505F0FAFB002010BD10B5FEF734
:10496000C3FA18B1BDE8104006F032B9BDE81040F6
:1049700006F028B938B5D0E9011204683AB1C36825
:104980002BB100200090204605F002FD38BD2046E6
:10499000BDE83840002205F0D7BC00002DE9FF41FA
:1049A0000D004FF00006CDE9016507461ED000243A
:1049B0000396501C1FD002B11446FEF795FA6946C3
:1049C0004FF01008E8B103AA2846091D05F050FF72
:1049D000012813D000960398E8B114494FF0805095
:1049E0000860BFF34F8FBFF36F8F14E08020314614
:1049F0002A46009011E04FF0FF34DEE7CDF800804A
:104A0000E9E722462846091D05F096FE012808D050
:104A100054B1402000909DE8070087E80700BDE8FA
:104A2000FF81CDF80080F6E70020F3E704ED00E019
:104A300037B5054682B000200090140000D1012453
:104A4000FEF752FA4FF0000388B16A4603A92846E0
:104A500005F0C6FD012811D1009890B10A494FF028
:104A600080500860BFF34F8FBFF36F8F09E022467D
:104A700003A9284605F004FD012802D0FF2005B057
:104A800030BD0020FBE7000004ED00E041684FF07E
:104A9000010009B105F04BBC05F03EBC38B500245F
:104AA00005460094FEF720FA90B16946284605F0C5
:104AB000F5FD012801D0FF2038BD009888B10A49D2
:104AC0004FF080500860BFF34F8FBFF36F8F08E047
:104AD00000231A461946284605F0D2FC012800D0CA
:104AE000FF24204638BD000004ED00E038B5050085
:104AF0004FF0000000900FD00024481C0ED001B1F0
:104B00000C46FEF7F1F9B8B16A460021284605F0D7
:104B1000AFFE012816D104E0802038BD4FF0FF34ED
:104B2000EFE7009880B109494FF080500860BFF36B
:104B30004F8FBFF36F8F07E02146284605F0E6FE52
:104B4000012801D0FF2038BD002038BD04ED00E071
:104B500038B543684BB1012909D1032000220090E8
:104B60001146012005F014FC38BD012901D00020B8
:104B700038BD03220021012005F0E6FB040004D02B
:104B800000231A46194605F07BFC204638BD00007C
:104B900038B5002405460094FEF7A6F990B16946A1
:104BA000284605F07BFD012801D0FF2038BD009884
:104BB00088B10A494FF080500860BFF34F8FBFF3B0
:104BC0006F8F08E000231A461946284605F058FC66
:104BD000012800D0FF24204638BD000004ED00E08D
:104BE00038B505004FF0000000900FD00024481C9D
:104BF0000ED001B10C46FEF777F9B8B16A46002134
:104C0000284605F035FE012816D104E0802038BD85
:104C10004FF0FF34EFE7009880B109494FF0805022
:104C20000860BFF34F8FBFF36F8F07E02146284620
:104C300005F06CFE012801D0FF2038BD002038BDF2
:104C400004ED00E07FB50D4604464169B0F9080067
:104C500081B1A16971B1FFF7E7F9D4E905128DE8D7
:104C60000700D4E900102B46226905F072FF03907B
:104C700004B070BDFFF7D8F903A9CDE90001208A7F
:104C80002B4682B2D4E9001005F036FF012801D08E
:104C90000020EDE70398EBE72DE9F05F16460F469D
:104CA00005281FD2DFE800F00305070909003625B3
:104CB00004E0222502E00E2500E000254FF0010A65
:104CC0004FF00008002E7AD0012E79D0022EFCD0B1
:104CD000032E0CD066A34FF4C67271A177A0FCF727
:104CE000CBFE97E062A34FF48B727EA1F6E70C2017
:104CF000FFF7EAFC040037D060191330267320F068
:104D00000300C4E90080800706D059A34FF49472D1
:104D10007BA16AA0FCF7B0FEED1C25F00300C0F5F6
:104D200014702781B84200D938466081616804F563
:104D3000187B0144594506D94DA34FF497727CA1C5
:104D40005EA0FCF799FE9420B0EB950F06D148A326
:104D500040F2311283A159A0FCF78EFEA4F80EA0F8
:104D60006089A1463F1A41E000F052FD52E00C205C
:104D7000FFF7AAFC05003CD02E7385F80D80C5F81E
:104D800000804FF6FF70C9F80050874206DB38A359
:104D90004FF4A67280A149A0FCF76EFEB8B24FF4A2
:104DA00014712881884200D30846688105F11000FB
:104DB0006860800709D02EA340F2511201E01EE086
:104DC00044E07AA13DA0FCF757FE60896168014488
:104DD000594506D926A340F2531255A137A0FCF736
:104DE0004BFEA5F80EA06889A9463F1A002FBEDC2D
:104DF00038E000F00DFD204600F09CFB0AE005F1D4
:104E0000130020F00302F81C20F00301501880B2B8
:104E1000814202D90020BDE8F09FFFF709FA041E85
:104E2000F9D06019133020F0030161602781678198
:104E3000C4F8008084F80C80880713D00CA34FF4CA
:104E4000BB7266A11DA0FCF717FE0BE00B20FFF75D
:104E50003BFC041EDFD0C4F8048027816781C4F8BE
:104E600000802673A4F80EA084F80D802046D2E7B7
:104E70002E2E2F4D6964646C6577617265732F54B3
:104E8000686972645F50617274792F4C7749502F52
:104E90007372632F636F72652F706275662E630085
:104EA000706275665F616C6C6F633A206572726FD9
:104EB0006E656F757320747970650000417373655A
:104EC0007274696F6E2022257322206661696C6599
:104ED00064206174206C696E6520256420696E20F1
:104EE00025730A00706275665F616C6C6F633A20AF
:104EF0006261642070627566206C61796572000081
:104F0000706275665F616C6C6F633A207062756683
:104F100020702D3E7061796C6F61642070726F70CB
:104F200065726C7920616C69676E656400000000D1
:104F3000636865636B20702D3E7061796C6F61648E
:104F4000202B20702D3E6C656E20646F6573206E83
:104F50006F74206F766572666C6F7720706275660D
:104F600000000000504255465F504F4F4C5F425585
:104F70004653495A45206D757374206265206269F5
:104F800067676572207468616E204D454D5F414CC6
:104F900049474E4D454E540072656D5F6C656E20FD
:104FA0003C206D61785F7531365F740070627566A4
:104FB0005F616C6C6F633A207062756620712D3E84
:104FC0007061796C6F61642070726F7065726C795A
:104FD00020616C69676E6564000000007062756630
:104FE0005F616C6C6F633A20706275662D3E706114
:104FF000796C6F61642070726F7065726C7920617A
:105000006C69676E6564000070B5DDE904450528CC
:1050100013D2DFE800F0030507090900362004E099
:10502000222002E00E2000E00020C01C20F003003F
:105030004618AE4209D9002070BD0CA340F2C5123B
:1050400016A11FA0FCF718FDF5E700251D6014B19F
:105050002044586000E05D60022058731981598136
:105060001A730120D881184670BD00002E2E2F4DD6
:105070006964646C6577617265732F5468697264E2
:105080005F50617274792F4C7749502F7372632F80
:10509000636F72652F706275662E6300706275664D
:1050A0005F616C6C6F6365645F637573746F6D3A99
:1050B000206261642070627566206C61796572009F
:1050C000417373657274696F6E20222573222066A6
:1050D00061696C6564206174206C696E652025646B
:1050E00020696E2025730A0070B50D4608B1002DA9
:1050F00008D1BDE8704014A34FF453721EA12CA038
:10510000FCF7BABC0446006820B121892A89114401
:105110002181F7E72089618988420FD00AA340F2F4
:1051200055322DA122A0FCF7A7FC206830B106A3C0
:1051300040F2563234A11EA0FCF79EFC208929893A
:1051400008442081256070BD2E2E2F4D6964646C4B
:105150006577617265732F54686972645F5061721C
:1051600074792F4C7749502F7372632F636F726578
:105170002F706275662E6300286820213D204E55F1
:105180004C4C2920262620287420213D204E554CA9
:105190004C29202870726F6772616D6D6572207680
:1051A000696F6C61746573204150492900000000EB
:1051B000417373657274696F6E20222573222066B5
:1051C00061696C6564206174206C696E652025647A
:1051D00020696E2025730A00702D3E746F745F6C19
:1051E000656E203D3D20702D3E6C656E20286F66FB
:1051F000206C617374207062756620696E2063682C
:1052000061696E2900000000702D3E6E6578742083
:105210003D3D204E554C4C00002102E0491C0068E9
:1052200089B20028FAD10846704700002DE9F047FE
:105230004FF000070C4605003E466FF00F0904D002
:105240001CB128892189884204D235A34FF46F729A
:105250003FA14AE06FF0050A6889C11B6089801B85
:10526000814201DB80B200E088B28046606842463D
:10527000811968683844FBF734F807EB080087B2F7
:1052800006EB080086B26889B84206D224A340F231
:10529000CD323BA140A0FCF7EFFB6089B04206D2C3
:1052A0001FA340F2CE3246A13BA0FCF7E5FB60898C
:1052B000B04201D8246800266889B84202D12D681E
:1052C000002765B1002C16D060892189884212D14F
:1052D000206800280FD012A340F2DD3215E0002C28
:1052E0001BD00FA34FF476723CA12BA0FCF7C4FB9C
:1052F0004846BDE8F08775B16889298988420AD196
:10530000286840B106A340F2E23238A122A0FCF79F
:10531000B3FB5046EDE7002C9ED10020E9E70000EA
:105320002E2E2F4D6964646C6577617265732F54FE
:10533000686972645F50617274792F4C7749502F9D
:105340007372632F636F72652F706275662E6300D0
:10535000706275665F636F70793A20746172676519
:1053600074206E6F742062696720656E6F75676860
:1053700020746F20686F6C6420736F7572636500B2
:105380006F66667365745F746F203C3D20705F7458
:105390006F2D3E6C656E0000417373657274696FAA
:1053A0006E2022257322206661696C656420617419
:1053B000206C696E6520256420696E2025730A00C3
:1053C0006F66667365745F66726F6D203C3D20701A
:1053D0005F66726F6D2D3E6C656E0000705F746F5E
:1053E00020213D204E554C4C000000007062756637
:1053F0005F636F7079282920646F6573206E6F7406
:1054000020616C6C6F77207061636B6574207175BF
:1054100065756573210000002DE9F0471646894641
:105420004FF0000828B1B9F1000F07D0002704465B
:105430002CE019A340F2FE3223A103E016A340F2B0
:10544000FF3229A131A0FCF717FB0020BDE8F0874F
:105450002BB16089984202D8181A83B215E060898E
:10546000C01A85B2B54200D9354660682A46C118CF
:1054700009EB0700FAF735FF08EB05001FFA80F883
:10548000781987B2701B86B2002324680EB1002CF5
:10549000DED14046DAE700002E2E2F4D6964646CA1
:1054A0006577617265732F54686972645F506172C9
:1054B00074792F4C7749502F7372632F636F726525
:1054C0002F706275662E6300706275665F636F7021
:1054D000795F7061727469616C3A20696E76616C93
:1054E0006964206275660000706275665F636F7044
:1054F000795F7061727469616C3A20696E76616C73
:105500006964206461746170747200004173736532
:105510007274696F6E2022257322206661696C6542
:1055200064206174206C696E6520256420696E209A
:1055300025730A002DE9F041040017D0207B0028D4
:105540000CD001280AD0022808D0032806D029A3AD
:105550004FF4377233A139A0FCF78EFA5FF00005E3
:1055600000F044FE0746E08950B110E021A340F26C
:10557000D2223CA131A0FCF77FFA0020BDE8F081E7
:105580001CA340F2EB223AA12CA0FCF775FAE089AB
:10559000401E86B2E681384600F034FE002E1ED151
:1055A000617B207B266889070CD5206930B911A35F
:1055B00040F2F92234A121A0FCF75EFA21692046CD
:1055C000884708E003280CD001280DD002280BD012
:1055D0002046FEF72FFD6D1CEDB23400C0D12846E9
:1055E000CCE721460C2001E021460B20FEF7F8FF16
:1055F000F1E700002E2E2F4D6964646C65776172AF
:1056000065732F54686972645F50617274792F4CAE
:105610007749502F7372632F636F72652F706275B5
:10562000662E6300706275665F667265653A207308
:10563000616E6520747970650000000041737365C8
:105640007274696F6E2022257322206661696C6511
:1056500064206174206C696E6520256420696E2069
:1056600025730A007020213D204E554C4C0000004F
:10567000706275665F667265653A20702D3E726570
:1056800066203E203000000070632D3E6375737409
:105690006F6D5F667265655F66756E6374696F6E68
:1056A00020213D204E554C4C0000000070B500F00C
:1056B0009DFD094900250D7000F0A4FD0748046810
:1056C00006E0206F18B103F0E5FC256770BDE468C3
:1056D000002CF6D170BD000090000020AC0000202E
:1056E000002200F003B80122AFF3008070B5164627
:1056F0000D46040006D121A340F23F222BA12EA08B
:10570000FCF7BAF965B15CB1002D0BDA684282B2E0
:105710006089904207D219A340F2472230A10FE0DE
:10572000002070BDAAB2217B606869B103290BD04B
:10573000022911D001290FD010A340F2772230A105
:105740001DA0FCF799F917E0411B04F110026160FC
:10575000914208D260600FE0002D0BDA618991421E
:105760000AD3401B606060892844608120892844F6
:105770002081D5E7002EF4D1012070BD2E2E2F4DB3
:105780006964646C6577617265732F5468697264CB
:105790005F50617274792F4C7749502F7372632F69
:1057A000636F72652F706275662E63007020213DF5
:1057B000204E554C4C000000417373657274696F44
:1057C0006E2022257322206661696C6564206174F5
:1057D000206C696E6520256420696E2025730A009F
:1057E000696E6372656D656E745F6D61676E697415
:1057F000756465203C3D20702D3E6C656E00000098
:1058000062616420706275662074797065000000C2
:1058100070B500F0EBFC0C4C25780121217000F0F4
:10582000F1FC002D0ED100221146084804F022F8A8
:10583000002807D000F0DAFC00212170BDE870409C
:1058400000F0E0BC70BD000090000020AD560008E4
:105850002DE9F0470D46040006D12EA340F2F312C5
:1058600038A13EA0FCF708F9207B03280CD00128C2
:105870000AD0002808D0022806D026A34FF4FA72D6
:1058800040A136A0FCF7F8F82089A84240D92E1A8A
:105890004FF6FF7740F20B2840F20F2914E0281A48
:1058A00085B2BE4205DB1BA342463DA12BA0FCF7FF
:1058B000E3F820893044208124682CB915A34A4696
:1058C0003CA126A0FCF7D8F86089A842E7D3207B4A
:1058D000002815D16089A84212D0607B80070FD4C0
:1058E000A088001B284481B22046FEF7A9FD0400D1
:1058F00006D108A340F21D2234A118A0FCF7BCF881
:1059000065812581206808B1FFF714FE0020206022
:10591000BDE8F0872E2E2F4D6964646C6577617247
:1059200065732F54686972645F50617274792F4C8B
:105930007749502F7372632F636F72652F70627592
:10594000662E6300706275665F7265616C6C6F6372
:105950003A207020213D204E554C4C004173736518
:105960007274696F6E2022257322206661696C65EE
:1059700064206174206C696E6520256420696E2046
:1059800025730A00706275665F7265616C6C6F6387
:105990003A2073616E6520702D3E74797065000049
:1059A00067726F77203C206D61785F7531365F7468
:1059B00000000000706275665F7265616C6C6F63F9
:1059C0003A207120213D204E554C4C006D656D5F95
:1059D0007472696D2072657475726E6564207120D1
:1059E0003D3D204E554C4C0010B5040012D000F047
:1059F000FDFBE189491CE18100F004FCE0890028FD
:105A000008D1BDE8104004A340F239320EA113A022
:105A1000FCF732B810BD00002E2E2F4D6964646C67
:105A20006577617265732F54686972645F50617243
:105A300074792F4C7749502F7372632F636F72659F
:105A40002F706275662E63007062756620726566DF
:105A5000206F766572666C6F770000004173736526
:105A60007274696F6E2022257322206661696C65ED
:105A700064206174206C696E6520256420696E2045
:105A800025730A0070B5284D04462868844206D262
:105A900026A340F25D1231A136A0FBF7EDFF686846
:105AA000844206D321A34FF4AF723CA131A0FBF78F
:105AB000E3FF207930B11DA340F25F123EA12DA07B
:105AC000FBF7DAFF2088B0F5C86F06D917A34FF4AB
:105AD000B17240A127A0FBF7CFFF218828680144BD
